:020000040001F9
:1060000080340020BD610100D7610100D961010029
:106010000000000000000000000000000000000080
:10602000000000000000000000000000DB61010033
:106030000000000000000000DD610100DF610100E0
:10604000E1610100E1610100E1610100E161010044
:10605000E161010000000000E1610100E161010077
:10606000E1610100E1610100E1610100E161010024
:10607000E1610100E1610100E1610100E161010014
:10608000E1610100EB780100E1610100E1610100E3
:106090000D790100E1610100276E0100E16101005D
:1060A000E1610100E161010000000000000000006A
:1060B00000000000000000000000000000000000E0
:1060C00000F002F800F03EF80CA030C808382418A0
:1060D0002D18A246671EAB4654465D46AC4201D120
:1060E00000F030F87E460F3E0FCCB6460126334214
:1060F00000D0FB1AA246AB4633431847681C000089
:10610000881C0000103A02D378C878C1FAD8520728
:1061100001D330C830C101D504680C60704700005D
:106120000023002400250026103A01D378C1FBD8B3
:10613000520700D330C100D50B6070471FB51FBD9B
:1061400010B510BD01F0DCFD1146FFF7F7FF00F0C0
:1061500046FA01F0F4FD03B4FFF7F2FF03BC01F0CF
:10616000F9FD0000401E00BF00BF00BF00BF00BF20
:1061700000BF00BF00BF00BF00BF00BF00BFF1D124
:106180007047000070B505460C46164602E00FCC7D
:106190000FC5103E102EFAD2082E02D303CC03C531
:1061A000083E042E07D301CC01C5361F03E0217839
:1061B0002970641C6D1C761EF9D270BD03210C4839
:1061C00002680A4302600B4802680A4302600A48F8
:1061D00080470A480047FEE7FEE7FEE7FEE7FEE7E6
:1061E000FEE7000006480749074A084B70470000D1
:1061F0002405004054050040B5620100C160010063
:106200008024002080340020802C0020802C00205E
:1062100032483349086070473248008CC0B20128C8
:1062200012D13048808C0007000F00280CD12D4877
:10623000806AF0210840402806D12A48C06A0840F8
:10624000002801D1012070470020FCE72548008C80
:10625000C0B201282CD12348808C0007000F0028F1
:1062600026D12048806AF0210840002806D11D4828
:10627000C06A0840002801D1012070471948806A8F
:10628000F0210840102806D11648C06A08400028AE
:1062900001D10120F1E71348806AF021084030283D
:1062A00006D11048C06A0840002801D10120E4E767
:1062B0000020E2E710B5FFF7C9FF002805D00A4823
:1062C0000A494860C8130A498861FFF7A5FF0028FA
:1062D00002D001200749886010BD00000024F400AE
:1062E00000200020C00F00F0DFFF07C000050040C5
:1062F000006C00400006004000BFBFF34F8FD44841
:10630000D449C860BFF34F8F00BF00BFFEE703460C
:106310000C4622461946D048FFF7EEFF1220032113
:106320000522120707231B02D2188300D15000BF99
:10633000704710B592B0042103914C21684601804A
:10634000C649029117218180382104A801F0D3FCAD
:106350000021684601740121818203A906910F90F2
:10636000002104A800F072FC044600BF2346002B65
:1063700005D000BFBAA2C0211846FFF7BDFF00BF7D
:106380001421BA4801F0B7FC0320B8490870002076
:1063900048600872A02008820020488212B010BD18
:1063A00010B596B004200790B14800680A30B04993
:1063B0000860084600685A2801D90A200860AD49DB
:1063C0006846818004210181A9490391A949491C9A
:1063D0000182042101A80182A7490691382108A859
:1063E00001F089FC022108A80170002181700121BF
:1063F0006846818407A90A91022110A8017501A8A5
:106400001490002108A800F021FC044600BF234698
:10641000002B05D000BF92A2F2211846FFF76CFFB7
:1064200000BF16B010BD10B50446FFF7B9FF10BD90
:1064300010B58E4873DF044600BF2346002B06D0FC
:1064400000BF87A2FF2104311846FFF755FF00BFA8
:10645000122001218140894A916000BF10BD38B5EA
:1064600000BF002350228649082000F094FC054616
:1064700000BF2B46002B06D000BF79A2FF211331AD
:106480001846FFF739FF00BF00BF002000900090C2
:10649000684660DF044600BF2346002B06D000BFDD
:1064A0006FA2FF211A311846FFF726FF00BF38BD43
:1064B00010B500BF734A0A21082000F0F9FC044619
:1064C00000BF2346002B06D000BF65A2FF2121316B
:1064D0001846FFF711FF00BF00BF10BD10B540DF29
:1064E000044600BF2346002B06D000BF5CA2FF215C
:1064F0002B311846FFF700FF00BF10BD38B500BFB5
:106500006148624B052211460090002001F002FA1A
:10651000054600BF2B46002B06D000BF50A2FF212E
:1065200037311846FFF7E8FE00BF00BF584A012187
:10653000584801F06CFA044600BF2346002B06D0F1
:1065400000BF47A2FF2139311846FFF7D5FE00BF33
:1065500038BD10B50022032109044E48006801F03F
:106560009DFA044600BF2346002B06D000BF3CA284
:10657000FF2143311846FFF7BFFE00BF10BD38B5FD
:1065800000BF6846007801090901491C009168466E
:106590000078F02188431030009000BF09223EA10E
:1065A00068467CDF044600BF2346002B06D000BFB0
:1065B0002BA2FF2151311846FFF79EFE00BF39483C
:1065C00078DF044600BF2346002B06D000BF24A27C
:1065D000FF2153311846FFF78FFE00BF38BDFFF78C
:1065E0009DFEFFF78BFFFFF73AFFFFF761FFFFF715
:1065F000C6FFFFF79EFEFFF7ACFFFFF719FF00BFD6
:1066000000F018FDFFF76AFFFAE77CB504460D4677
:1066100000940195244A0821684600F06AFC7CBD7C
:1066200070B504460D46264600BF082D01D1012055
:1066300000E000200346002B05D100BF1BA2FF2174
:106640001B31FFF759FE00BF31687068884770BD85
:106650000400FA0500ED00E0EFBEADDE10200020E2
:106660002E2E5C6D61696E2E630000007820002084
:106670000420002009180000082000200005005018
:106680008C200020DC2000200B6601008C210020E3
:10669000276401000C2000204B6F73795F4D526519
:1066A0007300000041030000216601002E2E5C2EC5
:1066B0002E5C2E2E5C2E2E5C2E2E5C496E636C752D
:1066C00064655C6170705F636F6D6D6F6E5C61704F
:1066D000705F74696D65722E68000000F7B584B054
:1066E00004460F4606980678B01C1F2803DC607825
:1066F000801C1F2802DD0C2007B0F0BD1F20801B6E
:10670000801E85B20295B11C781802A97DDF039026
:106710000398002801D00398EEE72078022808D1DA
:1067200068460089A84204DC092001906846058972
:106730000BE0082001906078002804D06078A8421F
:1067400001DC657801E068460589681CC2B2304604
:10675000711CCEB23A543046721CD6B201993954EB
:1067600006980178A81C0818C1B20698017000208C
:10677000C2E7F8B505460C462078001D1F2801DD4C
:106780000C20F8BD684679DF0646002E01D0304661
:10679000F7E703212278501C2070A9541921227890
:1067A000501C2070A954207841196846008800F0D8
:1067B0008AFA2178401820700020E2E7F8B50546F3
:1067C0000F4616461C466868002801D10720F8BD10
:1067D0002078801C298840181F2801DD0C20F6E74E
:1067E0002878401CC1B22278501C2070B154217806
:1067F000481C207077542A8823789819696801F01A
:106800001BFA20782978401820700020DFE730B587
:1068100003461078C01C1F2801DD0C2030BD022467
:106820001578681C10704C550A241578681C107077
:106830004C551578681C10704B550020EEE7FFB5DD
:1068400087B006461D46109C0020069020780590D3
:10685000002747E0B900706841180A88684602813D
:1068600049884181002203A902A865DF04900498A9
:10687000002802D004980BB0F0BD6846017B09984F
:1068800081422ED10698002801D0002000E002208D
:10689000019020786946097B4118019808181F2843
:1068A00001DD0C20E7E70698002809D12078401C7C
:1068B00020702278511C08982170A854012006905D
:1068C0002078421903A902A865DF049004980028E3
:1068D00001D00498CFE720786946097B40182070E2
:1068E00000BF7F1C3088B842B4DC0698002806D070
:1068F00021780598401C081AC1B205982954002037
:10690000B9E7FFB581B0074615460A9E00960222F8
:106910003846049B0299FFF792FF0446002C02D0F0
:10692000204605B0F0BD0096102229463846049B4B
:10693000FFF785FF0446002C01D02046F1E7002038
:10694000EFE701460888062808DB08881922D201EB
:10695000904205DD0888E04A904201D00720704748
:106960004888062808DB48881922D201904205DDB4
:106970004888D94A904201D00720F0E70888D64AD3
:10698000904208D04888904205D008884A889042B2
:1069900001DD0720E3E70020E1E7F8B506460D46F4
:1069A00014462078801D1F2801D90C20F8BD3046E0
:1069B000FFF7C7FF0746002F01D03846F6E705214D
:1069C0002278501C2070A95412212278501C20706B
:1069D000A95422785119308800F075F921784018AF
:1069E000207022785119708800F06DF921784018D4
:1069F00020700020DAE7F8B505460E4614462879DF
:106A0000801CC7B22078801CC0191F2801DD0C2013
:106A1000F8BD781CC1B22278501C2070B154FF21FF
:106A20002278501C2070B15422789119288800F0E7
:106A30004AF9217840182070A88800280EDDA8683F
:106A4000002801D10720E3E7AA8823789819A968CC
:106A500001F0F2F820782979401820700020D7E75B
:106A6000FEB507460E461446386B002801D10720B4
:106A7000FEBD0020019032E0396B0C22019850439A
:106A80000D182879801CC0B200900098401CC1B23B
:106A90002278501C2070B15416212278501C20708E
:106AA000B15422789119288800F00DF92178401806
:106AB0002070A88800280EDDA868002801D10720D2
:106AC000D6E7AA8823789819A96801F0B5F8207844
:106AD0002979401820700198401CC0B201903420E0
:106AE000C15D01988142C7DC0020C1E7F8B50446CA
:106AF0000F4616460025002030702078002809D067
:106B0000324639462046FFF7E9FD0546002D01D003
:106B10002846F8BDA078002808D031463846FFF74F
:106B200028FE0546002D01D02846F2E7A08800285F
:106B30000ADD33463A460121201DFFF73FFE054698
:106B4000002D01D02846E4E7E06800280BD00020A3
:106B5000E168085632463946FFF759FE0546002DD2
:106B600001D02846D5E7208A00280CDD3B460622C6
:106B70000221204610300096FFF7C3FE0546002D87
:106B800001D02846C5E7208B00280CDD3B460722B4
:106B90000321204618300096FFF7B3FE0546002D6E
:106BA00001D02846B5E7208C00280CDD3B46152295
:106BB0001421204620300096FFF7A3FE0546002D45
:106BC00001D02846A5E7A06A002809D032463946F8
:106BD000A06AFFF7E2FE0546002D01D0284698E79F
:106BE000E06A002809D032463946E06AFFF703FF21
:106BF0000546002D01D028468BE73420005D002893
:106C000009DD324639462046FFF72AFF0546002DAA
:106C100001D028467DE728467BE701468888002882
:106C200008D08868002805D08868007804221040C1
:106C3000002801D1072070470020FCE70146888822
:106C4000002801DD072070470020FCE7F3B593B072
:106C50000D460021129111911398002814D0139819
:106C6000FFF7DBFF0446002C02D0204615B0F0BD34
:106C700012AA09A91398FFF739FF0446002C01D086
:106C80002046F3E709AE00E00026002D13D0284689
:106C9000FFF7D4FF0446002C01D02046E6E711AAF6
:106CA00001A92846FFF722FF0446002C01D0204608
:106CB000DCE701AF00E0002710A803793A46017A2B
:106CC000304672DFD2E702460A70FF200002104011
:106CD0000012487002207047FFFF000070B50646A2
:106CE0000C46154629462046FFF711FB70BDF8B546
:106CF0005A480078002800D1F8BD5948006800289B
:106D000001D1012000E00020054656480068002817
:106D100001D1012000E00020064600BF002D14D163
:106D2000684651DF0446052C01D101250CE0002CFA
:106D300006D000BF4CA269212046FFF7DDFA03E030
:106D4000474900980968884700BF002E1AD1544867
:106D50000088009069465348006861DF0446052CAE
:106D600001D101260DE0002C06D000BF3EA28021FB
:106D70002046FFF7C1FA04E04A480068394909682B
:106D8000884700BF002D02D0002E00D000E0C5E7EC
:106D900000BF00BFB0E7FFB581B00C4616461F46E6
:106DA000002C02D1072005B0F0BD20468107890FD5
:106DB000002901D1012100E00021002901D1072093
:106DC000F1E738480460364806803748076037499D
:106DD000019810DF0546002D01D02846E3E7012089
:106DE0001E490870162026DFDDE710B511DF0446C6
:106DF000002C01D0012000E0002018490870204636
:106E000010BD0146002901D10E20704715480160D0
:106E10000020FAE70146002901D10E2070471048F2
:106E200001600020FAE770B51F480068002811D003
:106E30001D4800688047044600BF2546002D07D046
:106E400000BF09A2FF2133312846FFF755FA00BFE2
:106E500000BF01E0FFF74BFF70BD000032200020B3
:106E600038200020342000202E2E5C2E2E5C2E2E6A
:106E70005C2E2E5C2E2E5C536F757263655C7364A2
:106E80005F636F6D6D6F6E5C736F6674646576695A
:106E900063655F68616E646C65722E63000000005C
:106EA000302000202C20002028200020DD6C010054
:106EB00030B50346481CC004040C10468507AD0FCE
:106EC000002D01D1012500E00025002D01D1072072
:106ED00030BD7A4802601019794D28600020794D44
:106EE0002870794D28707948038079480180002006
:106EF000EEE7F7B584B00C467448008884426BDC3A
:106F0000744D0020039000F0A4F80290029801282C
:106F100014D003A82EDF0746022F01D172B60CE071
:106F200000BF0197019F002F06D000BF6AA2592120
:106F30000198FFF7E1F900BF00BF00BF614800788A
:106F400000F0B1F860490978884206D05D480578BC
:106F5000007800F0A8F85B4908700298012814D066
:106F600062B66846007B2FDF0746022F0CD000BFB9
:106F70000197019F002F06D000BF57A26121019801
:106F8000FFF7BAF900BF00BF00BF5248854221D0C9
:106F9000E9004A4A0698126850500498002811D017
:106FA000002C0FDD494909886943454A1268881851
:106FB0002246049900F040FEE80040490968401864
:106FC000848005E00020E9003C4A12688918888026
:106FD000002600E0042600E00926304607B0F0BD98
:106FE000F8B505460E46174605200090354800784E
:106FF0003549097888421BD033480478007800F07E
:1070000052F8314908703148008860432C490968BA
:1070100040182860E00029490968401880883080BD
:10702000E00026490968085838600020009000BF39
:107030000098F8BD0EB504E068468188009A029871
:1070400090476A4601A902A8FFF7CAFF0028F3D0BB
:107050000EBD10B52D484068C105C90D002920D0CE
:107060000A46103A50B200280DDA284B1C330407A8
:10707000240F083CA408A4001B598407E40EE34035
:107080001B069B0F0BE0224B032424021B198408D0
:10709000A4001B598407E40EE3401B069B0FD8B2E3
:1070A00010BD0420FCE7014609480088814201DA4E
:1070B000481C00E00020C0B2704700003C200020C7
:1070C00040200020452000204420002046200020B1
:1070D00048200020FFFF00002E2E5C2E2E5C2E2E5E
:1070E0005C2E2E5C2E2E5C536F757263655C617036
:1070F000705F636F6D6D6F6E5C6170705F736368FE
:107100006564756C65722E630000000000ED00E0A0
:1071100000E100E010B5002819DAFB4A03071B0F55
:10712000083B9B089B00D2588307DC0EFF23A3403B
:107130009A438B071B0E8407E40EA3401A43F24BBD
:107140000407240F083CA408A4001A5118E0EF4AD1
:1071500003231B02D21883089B00D2588307DC0E3E
:10716000FF23A3409A438B071B0E8407E40EA34022
:107170001A43E64B032424021B198408A4001A5165
:1071800010BD10B50446E248846003211120FFF7CA
:10719000C1FF10BD10B501200004DE494860DD4983
:1071A00040394860112000F0F5FC112000F0E4FCAB
:1071B0000120D94908602F20FEF7D4FF0120D749CC
:1071C000087010BD10B5112001218140CF4A8032D6
:1071D000116000BF01200004CE498860CD494039CC
:1071E00088600120CC4948602F20FEF7BBFF0120BA
:1071F000C94988600020CA4908602F20FEF7B2FF05
:107200000020C649087010BDF0B502462420504346
:10721000C44B1B68C118C4480068401C002802D138
:10722000C148026059E0C0484B68006824246043AC
:10723000BC4C246800194068834217D8BA480068DB
:1072400024235843B74B1B68C01840684B68C31AC7
:10725000B548006824246043B24C24680019436098
:10726000B14800680862B048026036E04B68AE4D35
:107270002C6828680DE024254543AA4E3668AD19D0
:107280006D685B1B044624254543A64E3668AD1940
:10729000286A451C002D07D024254543A14E366899
:1072A000AD196D689D42E6D3451C002D0CD02425F8
:1072B00045439C4E3668AD196D68EE1A242545434A
:1072C000984F3F68ED196E604B6008622425654356
:1072D000944E3668AD192A6200BFF0BDF8B5064677
:1072E000914805682C4609E0B44200D109E02546E2
:1072F000242060438B4909684018046A601C0028F8
:10730000F2D100BF601C002800D1F8BDA54210D109
:107310008548006824214843824909684018006A6A
:107320008149086008460068401C002801D1FFF729
:1073300049FF242060437B4909684018476824209E
:107340006043784909684018016A24206843754AF7
:107350001268801801622420684372490968401845
:10736000046A601C00280CD0242060436D49096821
:1073700040184068C119242060436A4A1268801886
:10738000416000BFC1E710B5112000F0FCFB10BD4B
:1073900010B5142000F0F7FB10BD70B5044663482B
:1073A0000068002813D0614AE169A069126890471B
:1073B000054600BF2E46002E07D000BF5CA2FF216D
:1073C00064313046FEF798FF00BF00BF02E0A169BC
:1073D000E069884770BDF8B553480068401C002834
:1073E0003AD0002700F008FC04464D4801682046CA
:1073F00000F005FC06464C48056811E0242068436F
:107400004849096844186068B04200D90BE06068D8
:10741000361A6068C719256A2046FFF7BEFF00BF0D
:10742000681C0028EAD100BF4D4800784D49097812
:10743000884209D14B480078401CC0B249490870C5
:10744000022801D100200870464800788000464993
:107450000F50FFF79DFF00BFF8BD01464048007880
:10746000404A127890421DD03D480078401C3C4A6A
:10747000107010460078022801D1002010703848A2
:1074800000788000384A10580860254A0868126859
:107490008018234A1060104600680002000A10603D
:1074A000012070470020086000BFFAE7FEB51E48C3
:1074B000006801902D480078009076E00098C000A8
:1074C0002B490968441825786BE0182068436168E7
:1074D0000F18681CC5B2A078A84200D100253878E2
:1074E000022802D0032859D144E024217868484377
:1074F0000C4909684618307D002804D07868FFF7E9
:10750000EDFE002030754AE01CED00E000E100E0F7
:10751000001501404013014000100140742000207C
:1075200060200020502000205C20002070200020DF
:107530002E2E5C2E2E5C2E2E5C2E2E5C2E2E5C5360
:107540006F757263655C6170705F636F6D6D6F6E98
:107550005C6170705F74696D65722E63000000007D
:107560006C2000206D20002064200020542000208A
:10757000582000200CE0F849096824225143F74ABA
:107580001268881800210175F34A016A116000BF72
:10759000F1480068401C0028EDD100E000BF00BFAA
:1075A00000BF6078A84290D100BF0098411EC9B2C8
:1075B0000091002882D1E84801680198814201D0F9
:1075C0000120FEBD0020FCE7F0B50346002426E0C4
:1075D000E14E366824277E43E04F3F68F019466845
:1075E0009E4203D94668F61A46601DE046689B1B1A
:1075F00046683419002646600675D74E3568D64F62
:10760000066A3E600669002E08D00E193602360A58
:1076100086600669C66016680662156000BFCE48BF
:107620000068401C0028D3D100BFF0BDFEB507465E
:10763000C94800680290CA48007801906BE0019840
:10764000C000C849096845185DE0781C002807D0CB
:107650003E4624207043C14909684418276A23E044
:107660002978182359436A6850182978491C2970C9
:107670002978AA78914201D10021297046682421F5
:107680007143B64A12688C180178012902D1217D14
:10769000002900D037E08168A160C168E16001691C
:1076A00021614169E16100BFAF49A0680968401AE2
:1076B0000002000AAD49884208D2AB49A0680968B7
:1076C00000F09DFAE1684018606011E0A648A168EA
:1076D000006800F094FA0090E1680098814204D9B3
:1076E000E1680098081A606001E00020606000BF57
:1076F0000020A060E06001202075801E20623046DE
:10770000FFF782FD00BF781C00289ED12878697899
:1077100088429AD100BF0198411EC9B20191002848
:107720008DD18D4801680298814201D00120FEBDB3
:107730000020FCE7FEB588480068401C002834D0D3
:1077400085480068242148438449096840184568F1
:1077500000F052FA0190844804682146019800F034
:107760004EFAC61C82480078002801D1FFF712FDAE
:10777000AE4201D2284600E0304604192402240A11
:1077800020467C49086000BF00F036FA009001995D
:10779000009800F034FAC71C2046019900F02FFA37
:1077A000874201D9FFF7EFFD01E0FFF70BFDFEBDBA
:1077B000FEB50020C04301906B4804686648076826
:1077C0006846FFF74AFE0546FFF770FE0646002DA5
:1077D00005D001AA21460098FFF7F6FE0126019880
:1077E000FFF724FF002800D00126002E02D03846E3
:1077F000FFF7A0FFFEBD4170704770B502460B4613
:107800005078411C9078884200D10021107888423D
:1078100001D1002070BD196050781826704355685A
:107820002C182046F6E7FFB581B005460E461746F0
:10783000E9004C4A126888186946FFF7DEFF0446E3
:10784000002C02D1042005B0F0BD0120207066603C
:1078500000F0D2F9A060E760049820610A986061A6
:10786000E900404A126888180099FFF7C4FFFFF743
:107870008FFD0020E7E7F8B504460E46E100394ADF
:10788000126888186946FFF7B8FF0546002D01D138
:107890000420F8BD022028706E60E100314A1268B1
:1078A00088180099FFF7A7FFFFF772FD0020F0E7A7
:1078B00038B50446E1002B4A126888186946FFF77C
:1078C0009CFF0546002D01D1042038BD03202870FF
:1078D000001F6860E100234A126888180099FFF7CA
:1078E0008AFFFFF755FD0020EFE710B50020224981
:1078F00008600021204841608160C16000201E496D
:10790000403908604860FFF766FD10BD10B5FFF70D
:107910004FFF10BDFFB581B00E4617461C462046EE
:107920008107890F002901D1012100E000210029F0
:1079300002D1072005B0F0BD002C01D10720F9E7E6
:10794000FFF740FC0D490A9808600D48067003488F
:107950000460002523E000005C200020502000206F
:10796000542000205820002060200020FFFF7F00CE
:10797000742000204015014040110140702000207B
:107980004C2000200021242068439F4A1268115493
:10799000242068439C4A1268801801756D1CB5420A
:1079A000F0DB24207043041903209849087098489C
:1079B0000460183400250CE0E900954A1268881824
:1079C00000210170417087704460182179430C19BF
:1079D0006D1C032DF0DB0020C0438E4908600020A1
:1079E0008D4908708D490870142000F0D3F80321E8
:1079F0001420FFF78FFB142000F0BEF80198FFF76A
:107A0000C0FB00F0F9F886490860002092E770B5E5
:107A100003460C467C480068002801D1082070BD50
:107A2000002A01D10720FAE7002B01D10720F6E751
:107A300000211CE024204843734D2D68285C002859
:107A400014D10125242048436F4E36683554242034
:107A500048436D4D2D6840194470242048436A4DB9
:107A60002D684019826119600020D8E7491C6D48D3
:107A700000788142DEDB0420D1E710B500F092F8F7
:107A8000012802D0032804D101E0002403E00124EE
:107A900001E0022400BF00BF204610BDFEB5044631
:107AA0000D46164658480068002801D10820FEBD42
:107AB0005C480078844201D2052D01D20720F6E708
:107AC0002420604350490968085C012801D008203F
:107AD000EDE7242060434C490968401840780128AC
:107AE00001D1284600E000200746FFF7C6FF3B46CD
:107AF0002A46214600960190FFF795FED7E770B51C
:107B0000044641480068002801D1082070BD45485E
:107B10000078844201D30720F8E7242060433A49E3
:107B20000968085C012801D00820EFE7FFF7A5FFEE
:107B300005462146FFF79FFEE8E710B5324800688A
:107B4000002801D1082010BDFFF797FF0446FFF77A
:107B5000AFFEF8E710B5044600F04EF820600020B4
:107B600010BD70B505460E4614463146284600F055
:107B700046F82060002070BDC206D20E012191405F
:107B8000294A11607047C206D20E01219140274A4E
:107B900011607047C206D20E01219140234A803203
:107BA0001160704710B522484068C105C90D002911
:107BB00020D00A46103A50B200280DDA1C4B1C3374
:107BC0000407240F083CA408A4001B598407E40EF2
:107BD000E3401B069B0F0BE0134B032424021B19ED
:107BE0008408A4001B598407E40EE3401B069B0F86
:107BF000D8B210BD0420FCE70E484068704702462A
:107C0000501A0002000A7047502000205420002023
:107C1000582000205C2000206C2000206D200020D7
:107C2000602000204C20002000E100E000E200E0A5
:107C300000ED00E000150140F8B5042A2CD38307BD
:107C400012D00B78491C0370401C521E83070BD0C6
:107C50000B78491C0370401C521E830704D00B781C
:107C6000491C0370401C521E8B079B0F05D0C91A7C
:107C7000DF002023DE1B08C90AE0FEF783FAF8BD07
:107C80001D4608C9FD401C46B4402C4310C0121FBD
:107C9000042AF5D2F308C91A521EF0D40B78491CF5
:107CA0000370401C521EEAD40B78491C0370401C20
:107CB000012AE4D409780170F8BD01E004C0091F6D
:107CC0000429FBD28B0701D50280801CC90700D094
:107CD0000270704700290BD0C30702D00270401C0D
:107CE000491E022904D3830702D50280801C891E05
:107CF000E3E70022EEE70022DFE7704770477047B6
:107D0000754600F023F8AE46050069465346C008A4
:107D1000C000854618B020B5FEF764FA60BC0027A5
:107D20004908B6460026C0C5C0C5C0C5C0C5C0C547
:107D3000C0C5C0C5C0C5403D49008D46704704461A
:107D4000C046C0462046FEF706FA000000487047CD
:107D50001C24002001491820ABBEFEE726000200CB
:107D600070470000847D01000020002078000000A2
:107D700004610100FC7D010078200020081400004F
:107D8000206101000024F400000000000000000059
:107D90000000000002150112233445566778899AC5
:107DA000ABBCCDDEEFF001020304C3000000000015
:107DB00000000000000000000000000000000000C3
:107DC00000000000000000000000000000000000B3
:107DD00000000000000000000000000000000000A3
:107DE0000000000000000000000000000000000093
:0C7DF00000000000000000000000000087
:04000005000160C1D5
:00000001FF
